:1017AB0025303262782530326278253032627825E6
:1017BB0030326278253032627825303262782530CB
:1017CB00326278000E0C0D090B03070600C1814035
:1017DB0001C0804101C0804100C1814001C08041F6
:1017EB0000C1814000C1814001C0804101C08041E6
:1017FB0000C1814000C1814001C0804100C18140D6
:10180B0001C0804101C0804100C1814001C08041C5
:10181B0000C1814000C1814001C0804100C18140B5
:10182B0001C0804101C0804100C1814000C18140A5
:10183B0001C0804101C0804100C1814001C0804195
:10184B0000C1814000C1814001C0804101C0804185
:10185B0000C1814000C1814001C0804100C1814075
:10186B0001C0804101C0804100C1814000C1814065
:10187B0001C0804101C0804100C1814001C0804155
:10188B0000C1814000C1814001C0804100C1814045
:10189B0001C0804101C0804100C1814001C0804135
:1018AB0000C1814000C1814001C0804101C0804125
:1018BB0000C1814000C1814001C0804100C1814015
:1018CB0001C0804101C0804100C1814000C0C10105
:1018DB00C30302C2C60607C705C5C404CC0C0DCD95
:1018EB000FCFCE0E0ACACB0BC90908C8D81819D905
:1018FB001BDBDA1A1EDEDF1FDD1D1CDC14D4D51535
:10190B00D71716D6D21213D311D1D010F03031F124
:10191B0033F3F23236F6F737F53534F43CFCFD3D54
:10192B00FF3F3EFEFA3A3BFB39F9F83828E8E92944
:10193B00EB2B2AEAEE2E2FEF2DEDEC2CE42425E5F4
:10194B0027E7E62622E2E323E12120E0A06061A164
:10195B0063A3A26266A6A767A56564A46CACAD6D14
:10196B00AF6F6EAEAA6A6BAB69A9A86878B8B97984
:10197B00BB7B7ABABE7E7FBF7DBDBC7CB47475B5B4
:10198B0077B7B67672B2B373B17170B050909151A4
:10199B009353529296565797559594549C5C5D9DD4
:1019AB005F9F9E5E5A9A9B5B9959589888484989C4
:1019BB004B8B8A4A4E8E8F4F8D4D4C8C4484854574
:0C19CB008747468682424383418180406A
:103AC5007FF1C003C002C0019007E274FFF0A37448
:103AD50017F0A374ABF00F78F1E6A3F07EF20F08B0
:103AE500E6A3F00E0F08E6A3F00E0F08E6A3F00E0E
:103AF5000F08E6A3F00E0F08E6A3F008E6A3F0D042
:083B050001D002D003020F60A1
:104144009007CB7402F09007CA04F07B017A0779D8
:0A415400CA7F04121D90A20192C15F
:01415E00223E
:1040F0009007D17440F09007D07403F07B017A07E9
:0B41000079D07F02121D90A20192A650
:01410B002291
:0B437200E58754FC4401F587000022A1
:0F428800AD07EE547F4480AE058EAAF5AB000063
:014297002204
:0B437D00E58754FC4402F58700002295
:0543EC00A20192A222D3
:10417A00EF7005C2C3D2C222EFB40105D2C3C2C2D4
:0A418A0022EFB40204C2C3C2C22235
:0543F100A21592C0229C
:0743A30020A402C322D32273
:10000E0020A4107F327E007D007C00123B9D20A438
:05001E0002D322C32201
:0F42C800E4F5BDF5BEEF4480F5BCAF058FDE22F7
:103CF700EF44C0F5BC000000000000E5BC30E5FB68
:103D070053BCDFAFBD7E00E5BE54F0FDEFC4F854F1
:103D17000FC868FBEEC454F048FAAF05EEC4F85478
:103D2700F0C868FEEDC4540F48FFEE4AFEEF4BFFA4
:013D37002269
:103FF100EF30E004D2928002C292EF30E104D2931A
:104001008002C293EF30E204D2948002C294EF3076
:08401100E303D29522C29522BF
:10410C00EFC394645013EF75F00A84C454F0FEEFBF
:0C411C0075F00A84E5F02EFF227FFF22E0
:0F42D700EFC4540F75F00AA4FEEF540F2EFF2210
:10426400EF75F00A84C454F0FEEF75F00A84E5F0AB
:034274004EFF22D8
:1041AE00EFC3940A5005EF2430FF22EFC394105052
:0941BE0005EF2437FF227FFF22E8
:10419400EDC4540FFF1241AEEF12099DED540FFF11
:0A41A4001241AE900001EF0209AFD6
:103D7700EFD39439500BEFC394304029EF24D0FF91
:103D870022EFD39446500BEFC394414018EF24C958
:103D9700FF22EFD39466500BEFC394614007EF24E3
:063DA700A9FF227FFF22AC
:01441F00227A
:014420002279
:014421002278
:0B2C8200900962EBF0A3EAF0A3E9F078
:102C8D00E4900968F0A3F0900962E0FBA3E0FAA3D9
:102C9D00E0F9900968E0FEA3E0FFF5828E8312094A
:102CAD00706010900969E004F070DC900968E00430
:102CBD00F080D490096AEEF0A3EFF0E4900968F08B
:102CCD00A3F0900965E0FBA3E0FAA3E0F9A3E0FE11
:102CDD00A3E0F5828E83120970FF603790096AE0D8
:102CED00FCA3E0FD900969E02DFD900968E03CFC36
:102CFD00900962E0FBA3E0FAA3E0F98D828C83EFEB
:102D0D001209AF900969E004F070B7900968E0040A
:102D1D00F080AF90096AE0FEA3E0FF900969E02F13
:102D2D00FF900968E03EFE900962E0FBA3E0FAA384
:0A2D3D00E0F98F828E83E40209AFF3
:0E39E2009009A8EBF0A3EAF0A3E9F0A3EDF042
:1039F000E4FFFE9009A8E0FBA3E0FAA3E0F98F82C0
:103A00008E8312097060070FBF00010E80E59009D8
:103A1000ABE0FD9009A8E0FBA3E0FAA3E0F98F82F8
:0F3A20008E83ED1209AF8F828E83A3E40209AF6C
:103A2F009009A3EBF0A3EAF0A3E9F0A3ECF0A3ED68
:013A3F00F096
:103A40007FFF7DFF9009A674FFF5F01209E745F0AE
:103A500060259009A3E0FBA3E475F0011209E7A932
:103A6000F0FA1209576FFB7A009017D7936DFFEBAE
:0B3A70009018D793FD80CDEFFEEDFF16
:013A7B002228
:1038F200900976EBF0A3EAF0A3E9F0A3ECF0A3EDD4
:01390200F0D4
:1039030090097CE0FD90097BE0FF90097974FFF555
:10391300F01209E745F06025900976E0FBA3E47512
:10392300F0011209E7A9F0FA1209576FFB7A009028
:1039330017D7936DFFEB9018D793FD80CDEFFEED76
:01394300FF84
:013944002260
:1041C7007401A807088002C333D8FCF59D53A2FBEE
:0941D700E4F5BDF5BE75BCE02263
:103F9B00EF44E8F5BC000000000000E5BC30E4FB9A
:103FAB0053BCEFAFBD7E00EF7802C333CE33CED818
:0A3FBB00F9FFE5BE5403FDEF4DFFD2
:013FC50022D9
:10291700EFD3940440037F0122EF7044900002122A
:102927000970B40104D2A88002C2A890000112095C
:1029370070FEB40104D2B88006EEB40107C2B843F2
:10294700B701800DEEB40104D2B88002C2B853B704
:10295700FE120957B40104D2888002C2887F002280
:10296700EF64017044900002120970B40104D2AA06
:102977008002C2AA900001120970FEB40104D2BA03
:102987008006EEB40107C2BA43B704800DEEB40166
:1029970004D2BA8002C2BA53B7FB120957B4010472
:1029A700D28A8002C28A7F0022EFB402149000020A
:1029B700120970B40105438F108003538FEF7F0016
:1029C70022EFB40314900002120970B40105438F7B
:1029D700208003538FDF7F0022EFB404149000029E
:1029E700120970B40105438F408003538FBF7F00E6
:0429F700227F022217
:101D9000EFD3940540037F0122120957FED3940329
:101DA00040037F0222EF7041EE700B900001120998
:101DB00070F452935294120957B4010B900001121F
:101DC00009704293F45294120957FEB4020A90002B
:101DD0000112097042934294EEB4030D9000011277
:101DE0000970FEF45293EE4294EF640170431209BD
:101DF00057FE700B900001120970F452915292EE4E
:101E0000B4010B9000011209704291F45292120930
:101E100057B4020A900001120970429142921209CD
:101E200057B4030D900001120970FEF45291EE4276
:101E300092EF64027043120957FE700B900001127A
:101E40000970F452955296EEB4010B9000011209FC
:101E5000704295F45296120957B4020A900001128A
:101E6000097042954296120957B4030D9000011271
:101E70000970FEF45295EE4296EF64037043120926
:101E800057FE700B900001120970F452B152B2EE7D
:101E9000B4010B90000112097042B1F452B2120960
:101EA00057B4020A90000112097042B142B21209FD
:101EB00057B4030D900001120970FEF452B1EE42C6
:101EC000B2EF64047043120957FE700B90000112C8
:101ED0000970F452B352B4EEB4010B900001120930
:101EE0007042B3F452B4120957B4020A90000112BE
:101EF000097042B342B4120957B4030D90000112A5
:101F00000970FEF452B3EE42B4EF64057043120957
:101F100057FF700B900001120970F452C952CAEFBA
:101F2000B4010B90000112097042C9F452CA12099F
:101F300057B4020A90000112097042C942CA12093C
:101F400057B4030D900001120970FFF452C9EF421B
:041F5000CA7F002222
:103DAD00257325303262753A25303262753A2530E9
:103DBD003262750D0A00257325643A25303262751D
:103DCD003A25303262752C207765656B203A2025B7
:053DDD0062750D0A00F3
:1032CF00C10E4409150000000044090B0000000066
:0F32DF0044090700000000C10CC10DC10AC10B5A
:103F4100438E80438901E47BE87A03F9F8120AD2AF
:103F5100C3E49FFFE49E900913F0A3EFF0E0F58A1C
:0D3F6100900913E0F58CD28CD2A9C2B922D0
:03000B00021F547D
:101F5400C0E0C0F0C083C082C0D075D000C000C053
:101F640001C002C003C004C005C006C00790091523
:101F7400E0FCA3E0FDA3E0FEA3E02401FFE43EFEB9
:101F8400E43DFDE43CFC900915120BAC900914E00F
:101F9400F58A900913E0F58CE47BE87A03F9F8906C
:101FA4000915E0FCA3E0FDA3E0FEA3E0FF120AD2C2
:101FB400AC00AD01AE02AF03E4FBFAF9F8C3120BB7
:101FC40088600302206B90090BE0FCA3E0FDA3E012
:101FD400FEA3E02401FFE43EFEE43DFDE43CFC906E
:101FE400090B120BACE47B3CF890090BE0FCA3E07A
:101FF400FDA3E0FEA3E0FF120AD2AC00AD01AE02E5
:10200400AF03E4FBFAF9F8C3120B88701F900907B9
:10201400E0FCA3E0FDA3E0FEA3E02401FFE43EFE18
:10202400E43DFDE43CFC900907120BAC9008FEE093
:1020340004F0E0643C70309008FDE004F0E0B43C4F
:10204400219008FCE004F0E0B418129008FBE004CE
:10205400F0E0B408037401F09008FCE4F09008FD8B
:10206400E4F09008FEE4F0E47B05FAF9F890091531
:10207400E0FCA3E0FDA3E0FEA3E0FF120AD2AC0063
:10208400AD01AE02AF03E4FBFAF9F8C3120B88709A
:1020940018300C03120000300D03120000300A0344
:1020A400120096300B03120000301043900903E035
:1020B400FCA3E0FDA3E0FEA3E02401FFE43EFEE474
:1020C4003DFDE43CFC900903120BAC9008FFE0FCDE
:1020D400A3E0FDA3E0FEA3E0FFA3E0F8A3E0F9A3DF
:1020E400E0FAA3E0FBD3120B884004D20FC210D055
:1020F40007D006D005D004D003D002D001D000D040
:0A210400D0D082D083D0F0D0E032BA
:10406900E49008FEF09008FDF09008FCF09008FB41
:1040790004F09008F77407F0A374DFF0A37401F05B
:05408900A3F0C20E22AD
:094388009008F7EEF0A3EFF0221B
:0643AA009008F9EFF0227B
:0643B0009008FAEFF02274
:0643B6009008FBEFF0226D
:0643BC009008FCEFF02266
:0643C2009008FDEFF0225F
:0643C8009008FEEFF02258
:03441300D20E22A4
:0643CE00A20EE433FF2201
:10415F009008FCE012099D9008FDE0900001120903
:0B416F00AF9008FEE09000020209AFD4
:0B1BB500900919EBF0A3EAF0A3E9F09F
:101BC000120957FFE4FCFDFE90091F120BAC9009AF
:101BD0001FE0FCA3E0FDA3E0FEA3E0FFE47B107A9E
:101BE0000EF9F8120A4790091F120BAC90091FE07A
:101BF000F8A3E0F9A3E0FAA3E0FBC000C001C00233
:101C0000C003900919E0FBA3E0FAA3E0F9900001FA
:101C100012097075F03CA4FFE4FCFDD003D002D0A3
:101C200001D000EB2FFFEA35F0FEED39FDEC38FC7A
:101C300090091F120BAC90091FE0F8A3E0F9A3E094
:101C4000FAA3E0FBC000C001C002C003900919E084
:101C5000FBA3E0FAA3E0F9900002120970FFE4FC94
:101C6000FDFED003D002D001D000EB2FFFEE3AFEF4
:101C7000ED39FDEC38FC90091F120BAC90091CE00B
:101C8000FBA3E0FAA3E0F9120957FFE4FCFDFE9084
:101C90000923120BAC900923E0FCA3E0FDA3E0FEB6
:101CA000A3E0FFE47B107A0EF9F8120A47900923AB
:101CB000120BAC900923E0F8A3E0F9A3E0FAA3E04B
:101CC000FBC000C001C002C00390091CE0FBA3E000
:101CD000FAA3E0F990000112097075F03CA4FFE44A
:101CE000FCFDD003D002D001D000EB2FFFEA35F08D
:101CF000FEED39FDEC38FC900923120BAC90092362
:101D0000E0F8A3E0F9A3E0FAA3E0FBC000C001C043
:101D100002C00390091CE0FBA3E0FAA3E0F99000E5
:101D200002120970FFE4FCFDFED003D002D001D006
:101D300000EB2FFFEE3AFEED39FDEC38FC90092365
:101D4000120BAC900923E0FCA3E0FDA3E0FEA3E0AE
:101D5000FF90091FE0F8A3E0F9A3E0FAA3E0FBD3AA
:101D6000120B8840037F0022900923E0FCA3E0FDD2
:101D7000A3E0FEA3E0FF90091FE0F8A3E0F9A3E0D1
:0F1D8000FAA3E0FBC3120B8870037F01227F02DE
:011D8F002231
:103FC6009008FAE09000031209AF9008F9E090001B
:103FD600021209AF9008F7E0FFA3E0CF8FF0120AB4
:0B3FE600289008FBE09000040209AFE7
:1039450090098BEBF0A3EAF0A3E9F090098BE0F97D
:10395500A3E0FAA3E09007E2C9F0A3EAF0A3E9F037
:1039650090098EE0FBA3E0FAA3E0F912095790074E
:10397500E5F09000011209709007E6F09000021240
:0F39850009709007E7F07BFF7A3D79AD020F667E
:1035C500900991EBF0A3EAF0A3E9F0900991E0F9F5
:1035D500A3E0FAA3E09007E2C9F0A3EAF0A3E9F0BB
:1035E500900994E0FBA3E0FAA3E0F91209FDFF902E
:1035F50007E5E5F0F0A3EFF09000021209709007DF
:10360500E7F09000031209709007E8F090000412AB
:0F36150009709007E9F07BFF7A3D79C3020F66D9
:0F42E600900915E0FCA3E0FDA3E0FEA3E0FF229A
:0F42F50090090BE0FCA3E0FDA3E0FEA3E0FF2295
:0F430400900907E0FCA3E0FDA3E0FEA3E0FF2289
:103B9D00900915E0F8A3E0F9A3E0FAA3E02FFFEAFE
:103BAD003EFEE93DFDE83CFC90090F120BAC90097F
:103BBD000FE0FCA3E0FDA3E0FEA3E0FF900915E0FC
:103BCD00F8A3E0F9A3E0FAA3E0FBD3120B885006AB
:073BDD000000000080D82267
:100026009009AC120BACE47FE87E03FDFC9009ACB2
:10003600E0F8A3E0F9A3E0FAA3E0FB120A4790096F
:1000460015E0F8A3E0F9A3E0FAA3E02FFFEA3EFEED
:10005600E93DFDE83CFC90090F120BAC90090FE05E
:10006600FCA3E0FDA3E0FEA3E0FF900915E0F8A3E2
:10007600E0F9A3E0FAA3E0FBD3120B8850060000D8
:05008600000080D822FB
:10349D009009B0120BACE47F607EEAFDFC9009B0A0
:1034AD00E0F8A3E0F9A3E0FAA3E0FB120A479009C4
:1034BD0015E0F8A3E0F9A3E0FAA3E02FFFEA3EFE42
:1034CD00E93DFDE83CFC90090F120BAC90090FE0B3
:1034DD00FCA3E0FDA3E0FEA3E0FF900915E0F8A337
:1034ED00E0F9A3E0FAA3E0FBD3120B88500600002D
:0534FD00000080D82250
:103BE4009007DF120BACE4FFFEFDFC9007DFE0F86A
:103BF400A3E0F9A3E0FAA3E0FBC3120B887005C2AB
:103C040010C20F22D210C20F900903120BB8000089
:103C140000009007DFE0FCA3E0FDA3E0FEA3E0FFCB
:073C24009008FF120BAC2217
:03441600A20F22D0
:0543F600C210C20F22FD
:0543FB00A216920C2245
:05440000A217920D223D
:05440500A201920A2251
:05440A00A218920B2234
:0C32EE00C111C1924109C2004109C10098
:103349009007CA120BAC759850438780438E40533F
:103359008EFE53890F4389209009C2E0B4010853B6
:10336900A23F43A240800353A23FE58730E705E42B
:103379007B108003E47B20FAF9F89007CAE0FCA3EC
:10338900E0FDA3E0FEA3E0FF120AD29007CEE0F829
:10339900A3E0F9A3E0FAA3E0FB120AD2120B648FAF
:1033A9008D8F8BC2ABD28ED2ACD2BC201105759950
:0433B90020D21122EB
:10427700EFB401079009C27401F022E49009C2F07B
:014287002214
:03002300023A7C22
:103A7C00C0E0C0F0C083C082C0D075D000C000C010
:0D3A8C0001C002C003C004C005C006C00791
:103A9900309807C298AF991237F2309904C299C287
:013AA900120A
:103AAA00D007D006D005D004D003D002D001D00070
:0B3ABA00D0D0D082D083D0F0D0E0321A
:10399400900807EFF09009C1E070059008078033A4
:1039A4009009C1E0B4010A900807E0FF120000800A
:1039B400279009C1E0B4020A900807E0FF12000052
:1039C40080169009C1E0900807B40307E0FF1200D5
:0E39D4008B8005E0FF120003900807E0FF2241
:0643D4009009C1EFF02288
:080003002012FDD2128F992298
:103DE2009009B8EBF0A3EAF0A3E9F09009B8E0FB80
:103DF200A3E0FAA3E0F912095760179009B8A3E407
:103E020075F0011209E7A9F0FA120957FF1200032F
:033E120080D92232
:103E7B009009BBEBF0A3EAF0A3E9F0ED1DAE0470E3
:103E8B00011C4E601C2012FDD2129009BBE0FBA35B
:103E9B00E475F0011209E7A9F0FA120957F59980B8
:023EAB00DA2219
:04440F002012FD2258
:103CB50090067DA3E0FF04F0700690067DE004F019
:103CC50090067DE0B4010CA3E0B40007E490067D06
:103CD500F0A3F0C2AF900682E024FFF0900681E0E9
:103CE50034FFF0D2AF747D2FF582E43405F583E01F
:013CF500FFCF
:013CF60022AB
:1037F20090079CEFF0124331C3EE940150479007BB
:103802009CE0FF900680E0247DF582E43405F58398
:10381200EFF0900680E004F0700690067FE004F07E
:1038220090067FE0B4010CA3E0B40007E490067FA9
:10383200F0A3F0C2AF900682E004F0700690068119
:06384200E004F0D2AF2209
:0C433100C2AF900681E0FEA3E0FFD2AF17
:01433D00225D
:10429800E490067DF0A3F0A3F0A3F0A3F0A3F0222E
:10325100454E443B00313B00303B004F4B00257352
:103261003B007777772E776F6F6D6F6E2E636E3BB6
:10327100000000000000000000000000000000004D
:1032810031303030313B7777772E776F6F6D6F6EDE
:103291002E636E3B000000000000000000000000F3
:1032A1000000000032303030303B3132303B000022
:1032B1003830303030303030303030303030303104
:0E32C1003B000A282E4C52581E061E0606120E
:0D433E00E4F5C7F5C5F5C675C380F5C422CA
:1041F90075C78375C5018FC4EEF5C375C65A75C6F3
:07420900A500AFC212433E05
:01421000228B
:1041E00075C78375C5028FC4EEF5C3AF058FC27561
:0941F000C65A75C6A50002433E43
:1042110075C78375C5038FC4EEF5C375C65A75C6D8
:05422100A50002433E70
:0F30D100E493FF900953E4F0A3EFF07F007E0239
:1030E00090094CEEF0A3EFF0A3EBF0A3EAF0A3E914
:0130F000F0EF
:1030F100E4900955F0A3F0900953E0FEA3E0FFA38B
:10310100E0FCA3E0FDC39FEC9E504590094DE02DEE
:10311100FF90094CE03CFE900952E02FFF900951CD
:10312100E03EFE1241F990094EE0FBA3E0FAA3E074
:10313100F9900955E0FCA3E0F5828C83EF1209AF09
:10314100900956E004F070AF900955E004F080A7B3
:01315100225B
:102F27009032C5E493FF90095CE4F0A3EFF0903290
:102F3700CBE493FF90095EE4F0A3EFF07F007E02FD
:102F4700900957EEF0A3EFF0A3EBF0A3EAF0A3E9A3
:012F5700F089
:102F5800E4900960F0A3F090095EE0FEA3E0FFA30F
:102F6800E0FCA3E0FDC39FEC9E5043900958E02D80
:102F7800FF900957E03CFE90095DE02FFF90095C47
:102F8800E03EFE900959E0FBA3E0FAA3E0F99009BE
:102F980060A3E0F5828C83120970FD1241E090096C
:0E2FA80061E004F070B1900960E004F080A9CF
:012FB60022F8
:1022AF007F007E021241F9EF641870030223607FF2
:1022BF00001242117D181241E07BFF7A3279639050
:1022CF0032C3E493FF90095CE4F0A3EFF09032C9BE
:1022DF00E493FF90095EE4F0A3EFF07F00122F4725
:1022EF007BFF7A3279819032C4E493FF90095CE4EA
:1022FF00F0A3EFF09032CA122F387BFF7A32798732
:10230F00122F277BFF7A3279A59032C6E493FF9084
:10231F00095CE4F0A3EFF09032CC122F387BFF7AF8
:10232F003279AB9032C7E493FF90095CE4F0A3EFEE
:10233F00F09032CD122F387BFF7A3279B19032C8BC
:10234F00E493FF90095CE4F0A3EFF09032CE122FEC
:10235F00387B017A0879099032C3E493FF900951D1
:10236F00E4F0A3EFF09032C91230D11235027B01A5
:10237F007A087931E4FF1236897B017A087909905E
:10238F0032C4E493FF900951E4F0A3EFF09032CA06
:10239F001230D11235027F011236837B017A087910
:1023AF00099032C5E493FF900951E4F0A3EFF09048
:1023BF0032CB1230D11235027F021236837B017A73
:1023CF000879099032C6E493FF900951E4F0A3EF26
:1023DF00F09032CC1230D11235027B017A0879316C
:1023EF007F031236897B017A0879099032C7E4930B
:1023FF00FF900951E4F0A3EFF09032CD1230D112DB
:10240F0035027B017A0879317F041236897B017A94
:10241F000879099032C8E493FF900951E4F0A3EFD3
:10242F00F09032CE1230D11235027B017A08793119
:0E243F007F0512368990088D7401F0A304F019
:01244D00226C
:1035020090099A7401F0A37408F0A37431F07B015E
:043512007A087909B1
:0B351600900997EBF0A3EAF0A3E9F0A6
:10352100E4FF900997E0FBA3E0FAA3E0F98F82752D
:103531008300120970FEB43B1490099AE0FBA3E0EA
:10354100FAA3E0F98F82758300E40209AF90099A2A
:10355100E0FBA3E0FAA3E0F98F82758300EE120984
:04356100AF0F80BE6A
:063683007B017A08793199
:103689009009B5EBF0A3EAF0A3E9F09009B4EFF0E3
:1036990060449009B4E0FF6401603BEFB40206782E
:1036A9006F7C0880219009B4E0B4030978697C082B
:1036B9007D01A380169009B4E0FF64046018EFB49B
:1036C9000514788F7C087D019009B5E0FBA3E0FA29
:0736D900A3E0F9120E5A22D2
:0B1519009008A0EBF0A3EAF0A3E9F0BB
:10152400A3E4F0A3F0A3F0F9A3C9F0A3F0A3E9F0B6
:10153400C219E49008C9F09008C9E0FFC3940550AB
:101544001474CA2FF582E43408F583E4F09008C9D2
:10155400E004F080E29008A0E0F9A3E0FAA3E0A39D
:10156400C9F0A3EAF0A3E9F0E49008C9F09008A355
:10157400E0FBA3E0FAA3E0F97D2C1241289008A631
:10158400EBF0A3EAF0A3E9F04A4B700302171E90B4
:1015940008A3A3E0FAA3E0AE02FFA3A3E0FAA3E04A
:1015A400C39FFFEA9EFED3EF9400EE6480948050C4
:1015B4000302171E9008C9E0600A9008A4E475F0BD
:1015C400011209D1E49008C8F09008A3E0FBA3E05D
:1015D400FAA3E0F9120957642C60299008A3A3E444
:1015E40075F0011209E7A9F0FA120957FF9008C82B
:1015F400E024AAF582E43408F583EFF09008C8E00B
:1016040004F080C59008C8E024AAF582E43408F503
:1016140083E4F07B017A0879AA1229FB9008A9EFE8
:10162400F09008A6E0FBA3E0FAA3E0F99008A3EB8E
:10163400F0A3EAF0A3E9F07D3B1241289008A6EB61
:10164400F0A3EAF0A3E9F04A4B700302171E9008D6
:10165400A3A3E0FAA3E0AE02FFA3A3E0FAA3E0C3CE
:101664009FFFEA9EFED3EF9400EE648094805003C3
:1016740002171E9008A4E475F0011209D1E4900841
:10168400C8F09008A3E0FBA3E0FAA3E0F91209571D
:10169400643B60299008A3A3E475F0011209E7A94B
:1016A400F0FA120957FF9008C8E024AAF582E4343E
:1016B40008F583EFF09008C8E004F080C59008C8EE
:1016C400E024AAF582E43408F583E4F09008A6E067
:1016D400F9A3E0FAA3E09008A3C9F0A3EAF0A3E910
:1016E400F09008A9E0FFC3940550207B017A0879A3
:1016F400AA122E92E433FF60129008A9E024CAF5DE
:1017040082E43408F5837401F0D2199008C9E00426
:10171400F0E0C394645003021571301903122BB026
:1017240090096574FFF0A37432F0A37451F090082B
:10173400A0E0FBA3E0FAA3E0F9122C82E49008C92C
:10174400F09008C9E0FFC39405503E74CA2FF58297
:10175400E43408F583E0900965B4010C74FFF0A348
:101764007432F0A37456800A74FFF0A37432F0A3A9
:101774007459F09008A0E0FBA3E0FAA3E0F9122C5E
:10178400829008C9E004F080B890096574FFF0A362
:101794007432F0A3745CF09008A0E0FBA3E0FAA319
:0617A400E0F9122C82D3D3
:0117AA00221C
:0B2E920090099DEBF0A3EAF0A3E9F02B
:102E9D00A3E4F0A3F0A3F0EF14600F14600E146020
:102EAD002A14600624047002C322C322786F7C08A2
:102EBD007D0190099DE0FBA3E0FAA3E0F9120D71ED
:102ECD00EF6006786F7C08803FC32290099DE0FB80
:102EDD00A3E0FAA3E0F8AC02AD037B017A087969AF
:102EED00120D71EF7002C32290099DE0FBA3E0FA71
:102EFD00A3E0F912280BE4FBFA7901F8D3120B7257
:102F0D005002C32278697C087D0190099DE0FBA3E6
:0A2F1D00E0FAA3E0F9120E5AD322E5
:102BB0007F007E021242117B017A0879CFE49009EE
:102BC0005CF0A3F0A3F0A3740AF0122F479007E281
:102BD00074FFF0A37432F0A3745FF0A37401F0A348
:102BE0007408F0A3746FF07B017A0879CF120F603C
:102BF0007B017A0879CF122F279007E274FFF0A3A8
:102C00007432F0A3745FF0A37401F0A37408F0A30E
:102C10007469F07B017A0879CF120F607B017A0822
:102C200079CF9032C6E493FF90095CE4F0A3EFF013
:102C30009032CC122F389007E274FFF0A37432F078
:102C4000A3745FF0A37401F0A37408F0A3748FF071
:102C50007B017A0879CF120F607B017A0879CF90D7
:102C600032C8E493FF90095CE4F0A3EFF09032CE19
:102C7000E493FF90095EE4F0A3EFF07F007E020290
:022C80002F47DC
:103C2B00900454E0FEA3E024C4F58274023EF583B5
:103C3B00E0FF900455E004F07006900454E004F0AB
:103C4B00900454E0B4010CA3E0B49007E490045446
:103C5B00F0A3F0C2AF900459E024FFF0900458E0B9
:053C6B0034FFF0D2AFB0
:013C70002231
:05373D00900797EFF07A
:10374200124391C3EF9490EE9401504A900797E090
:10375200FF900456E0FCA3E024C4F58274023CF519
:1037620083EFF0900457E004F07006900456E004F2
:10377200F0900456E0B4010CA3E0B49007E4900486
:1037820056F0A3F0C2AF900459E004F07006900422
:0637920058E004F0D2AF84
:01379800220E
:09439100900458E0FEA3E0FF22B5
:1042A800E4900454F0A3F0A3F0A3F0A3F0A3F02249
:103C7100900783A3E02483F582E43406F583E0FF13
:103C8100900784E004F07006900783E004F0900749
:103C910083E0B4010CA3E0B40007E4900783F0A330
:103CA100F0C2AF900788E024FFF0900787E034FF6F
:033CB100F0D2AF9F
:013CB40022ED
:0537990090079DEFF018
:10379E0012434BC3EF9420EE9401504790079DE0E7
:1037AE00FF900786E02483F582E43406F583EFF07C
:1037BE00900786E004F07006900785E004F090070D
:1037CE0085E0B4010CA3E0B40007E4900785F0A3F4
:1037DE00F0C2AF900788E004F07006900787E0040F
:0337EE00F0D2AF67
:0137F10022B5
:0C434B00C2AF900787E0FEA3E0FFD2AFF6
:014357002243
:1042B800E4900783F0A3F0A3F0A3F0A3F0A3F02207
:0232FA00C113FE
:103152009007CB120BAC53BAFB758450E47B04FA94
:10316200F9F89007CBE0FCA3E0FDA3E0FEA3E0FFAB
:10317200120AD29007CFE0F8A3E0F9A3E0FAA3E0A5
:10318200FB120AD2EFF404F5D3E47B04FAF9F890C7
:1031920007CBE0FCA3E0FDA3E0FEA3E0FF120AD20E
:1031A2009007CFE0F8A3E0F9A3E0FAA3E0FB120A4C
:1031B200D2C3E49FFFE49EFE74019DFDE49CFC7873
:1031C20008120B998FD243D12043D18043AF1022F2
:03009300023848E8
:10384800C0E0C0F0C083C082C0D075D000C000C046
:0D38580001C002C003C004C005C006C007C7
:10386500E58430E00E5384FEAF85EFB43E02C2140A
:0D387500123799E58430E1055384FDC2133C
:10388200D007D006D005D004D003D002D001D0009A
:0B389200D0D0D082D083D0F0D0E03244
:03441900D2142298
:03441C00A21422C5
:08008B002013FDD2138F852222
:103E15009007DFEBF0A3EAF0A3E9F09007DFE0FB02
:103E2500A3E0FAA3E0F912095760179007DFA3E4AE
:103E350075F0011209E7A9F0FA120957FF12008B74
:033E450080D922FF
:103EAD009009BEEBF0A3EAF0A3E9F0ED1DAE0470AE
:103EBD00011C4E601C2013FDD2139009BEE0FBA324
:103ECD00E475F0011209E7A9F0FA120957F585809A
:023EDD00DA22E7
:1019D70041542B554152543D31393230302C382C3B
:1019E700312C302C300D0A005769666920737461F9
:1019F700727420776F726B0D0A00576966695F57BB
:101A07004946495F41545F4F4B0D0A0041540D0A47
:101A170000415445000D0A0041542B43574D4F4494
:101A2700453D0041542B43574C41504F50543D00C6
:101A37002562750041542B43574C41500D0A004114
:101A4700542B43574A41503D2200222C2200220D9D
:101A57000A0041542B43495053544152543D002CE2
:101A67002254435022002C2200222C002C32004109
:101A77006C726561647920636F6E6E6563740D0ABD
:101A87000041542B434950434C4F53453D00256477
:101A97000041542B43495053454E443D0043757212
:101AA70072656E742057494649206D6F6465203A08
:101AB70020706F696E7432706F696E740D0A005012
:101AC7006C656173652063616C6C205032505F52A6
:101AD7006563656976654461746128290D0A005359
:101AE700656E644F6B61792C20256C646D730D0AEC
:101AF7000053656E6454696D656F75742C20256C91
:101B0700646D730D0A0041542B43574A41503F0DF2
:101B17000A0041542B4349505354415455530D0A1D
:101B27000041542B43575341503D2200222C313161
:101B37002C0041542B5253540D0A0041542B434956
:101B4700504D55583D0041542B47534C503D004193
:101B5700542B534C4545503D00574946495F54491E
:101B67004D454F55540D0A0041542B43575354418B
:101B77005254534D4152543D310053746172745362
:101B87006D617274436F6E6669670D0A0041542B6D
:101B9700435753544F50534D4152540053746F7031
:0E1BA700536D617274436F6E6669670D0A00BC
:1032FC008201000081030081000045046800000089
:10330C00000041057700410464004104660042045A
:10331C006D000041045D0041057C0042045B00002F
:10332C0042045E00004104650041045A00410576E8
:0C333C0000410467004404600000000031
:1040D200D283D282D2C57FE87E037D007C00123B70
:0E40E2009DD2A77FF47E017D007C00023B9DF5
:0D435800C2A77FC87E007D007C00023B9D57
:0F431300E47801F208F208F2900464F00242B874
:102DF100C2AF9007CF120BB80001C2007F007E80E6
:102E01007D517C011231521242B81242A8D2AFE474
:102E11009007CAF07BFF7A1979D7123E157FF47EAD
:102E2100017D007C00123B9D9007CAE004F0E0C3E5
:102E3100940340E0C2AF9007CF120BB800004B00E3
:102E41007F007E807D517C01123152D2AF7FF47EB2
:102E5100017D007C00123B9D7BFF7A1979EF120FF7
:102E610066E49007CAF0124226BF01097BFF7A1A75
:102E71007901120F669007CAE004F0E0C3940340A1
:102E8100E5E4FF1240197F01123F6E7F01123EDF20
:012E9100221E
:104226007BFF7A1A7913123E15123B55BF01037FA5
:0542360001227F0022BF
:104019009007CBEFF07BFF7A1A7918123E159007BB
:10402900CBE02430FF12008B7BFF7A1A791C123EF9
:08403900157FE87E03023B59EC
:103F6E009007CBEFF07BFF7A1A791F123E15900760
:103F7E00CBE02430FF12008B7BFF7A1A791C123EA5
:0D3F8E0015123B55BF01037F01227F002269
:0836E000900934EFF0A3EDF0B6
:1036E8007BFF7A1A792A123E15900934E02430FFBC
:1036F80012008B7F2C12008B9007E274FFF0A374EA
:103708001AF0A37437F0900935E09007E5F07B01D3
:103718007A097936120F607B017A097936123E15DB
:103728007BFF7A1A791C123E15123B55BF01037FA5
:0437380001227F00EB
:01373C00226A
:0833BD009007CAECF0A3EDF04B
:1033C50090046FEBF0A3EAF0A3E9F09007CAE0FEE2
:1033D500A3E0FF7D00120E7790057C7401F0900745
:1033E500CAE0FFA3E090045BCFF0A3EFF0E4900404
:1033F5005EF0A3F07BFF7A1A793B123E157F107EB3
:1034050027123B59BF0107E490057CF0FF22D390BA
:10341500045FE0940090045EE09400E490057C4035
:0734250003F0FF22F07F011C
:01342C00227D
:102FB7009007CAEBF0A3EAF0A3E9F0E490045DF010
:102FC7007BFF7A1A7946123E159007CAE0FBA3E009
:102FD700FAA3E0F9123E157BFF7A1A7951123E15D2
:102FE7009007CDE0FBA3E0FAA3E0F9123E157BFFC3
:102FF7007A1A7955123E157F307E75123B59EF6468
:1030070001703890045DE0FEB40109900464740116
:10301700F07F0022EE70037F012290045DE0FEB492
:1030270002037F0222EEB403037F032290045DE0D4
:0E303700FEB404037F0422EE7F01227F0122FB
:0B25C7009007CAEBF0A3EAF0A3E9F0D4
:1025D2007BFF7A1A7959123E159007CAE0FBA3E0F5
:1025E200FAA3E0F99000351209702430FF12008B33
:1025F2007BFF7A1A7966123E157BFF7A1A796D1281
:102602003E159007CAE0FBA3E0FAA3E0F99000347C
:10261200120970B4010DE92416F9E43AFA9007CDD3
:10262200EB800C9007CAE0F9A3E0FAA3E0A3C9F09B
:10263200A3EAF0A3E9F09007CDE0FBA3E475F00173
:102642001209E7A9F0FA120957FF12008B9007CD81
:10265200E0FBA3E0FAA3E0F912095770D97BFF7AF5
:102662001A7970123E159007CAE0FBA3E0FAA3E0C4
:102672002410F9E43AFA123E157BFF7A1A797312A2
:102682003E157BFF7A1A791C123E15E490045AF02B
:102692007F407E1F123B59BF011F9007CAE0FBA378
:1026A200E0FAA3E0F99000351209702468F582E49B
:1026B2003404F5837401F0FF2290045AE0B4022638
:1026C2007BFF7A1A7976120F669007CAE0FBA3E0C5
:1026D200FAA3E0F99000351209702468F582E43417
:0826E20004F5837401F07F0090
:0126EA0022CD
:103565009007CAEBF0A3EAF0A3E9F07BFF7A1A799A
:1035750088123E159007CAE0FBA3E0FAA3E0F99094
:1035850000351209702430FF12008B7BFF7A1A79FF
:103595001C123E157FD07E07123B59BF011F9007B5
:1035A500CAE0FBA3E0FAA3E0F99000351209702404
:1035B50068F582E43404F583E4F07F01227F00227C
:0B210E009007CAEBF0A3EAF0A3E9F091
:102119009007E274FFF0A3741AF0A37495F0900786
:10212900D0E0FFA3E09007E5CFF0A3EFF07B017AC1
:102139000779D2120F607BFF7A1A7998123E1590AF
:1021490007CAE0FBA3E0FAA3E0F990003512097091
:102159002430FF12008B7F2C12008B7B017A0779C8
:10216900D2123E157BFF7A1A791C123E15E49004AF
:102179005AF01244197FE87E037D007C00123BE48B
:1021890012441C500512441650F6124416502A9057
:10219900045AE06401600302226D9007CAE0FBA3C0
:1021A900E0FAA3E0F99000351209702468F582E499
:1021B9003404F583E4F002226DE49007DCF0A3F027
:1021C9009007D0E0FEA3E0FF9007DCE0FCA3E0FD70
:1021D900C39FEC9E50269007CDE0FBA3E0FAA3E055
:1021E900F98D828C83120970FF12008B9007DDE054
:1021F90004F070CC9007DCE004F080C4E490047330
:10220900F0A3F0A3F07FE87E03FDFC123BE4900409
:1022190073E0B405028007900474E0B40107E49008
:1022290007DEF0801A900475E0B402089007DE74A6
:1022390001F0800B12441650D59007DE7402F0901D
:1022490007DEE0701F9007CAE0FBA3E0FAA3E0F9FC
:102259009000351209702477F582E43405F583E49A
:10226900F07F01229007CAE0FBA3E0FAA3E0F9900E
:1022790000351209702477F582E43405F583E0040A
:10228900F0900035120970FF2477F582E43405F5E2
:1022990083E0D39414400C74682FF582E43404F578
:0522A90083E4F07F005A
:0122AE00220D
:1031D2009007CAEBF0A3EAF0A3E9F0A3ECF0A3EDA9
:0131E200F0FC
:1031E300E4A3F0A3F0900465E0704D124391EF4E19
:1031F3006058124391EF4E6036123C2B9007CAE0A1
:10320300FBA3E0FAA3E0F99007CFE475F0011209FC
:10321300E785F082F583EF1209AF9007CDE0FCA3B9
:10322300E0FDA3E0FEA3E0FFC39DEE9C40C422901B
:1032330007CFE0FEA3E0FF227BFF7A1A79A4120FE7
:0D324300667BFF7A1A79C6120F66E4FEFF63
:01325000225B
:0B2D4700900927EBF0A3EAF0A3E9F0ED
:102D52009007E274FFF0A3741AF0A37495F0AF0524
:102D6200A3ECF0A3EFF07B017A09792A120F607BC2
:102D7200FF7A1A7998123E15900927E0FBA3E0FA30
:102D8200A3E0F99000351209702430FF12008B7F06
:102D92002C12008B7B017A09792A123E157BFF7A6D
:102DA2001A791C123E15124419E490045AF07FF469
:102DB2007E01FDFC123BE412441C500512441650E5
:102DC200F6124416502690045AE0B4011C900927CA
:102DD200E0FBA3E0FAA3E0F9900035120970246841
:0E2DE200F582E43404F583E4F07F00227F01E3
:012DF00022C0
:0B26EB00900940EBF0A3EAF0A3E9F037
:1026F600E4900949F0A3F0900946E0FEA3E0FF90BC
:102706000949E0FCA3E0FDC39FEC9E5026900943D7
:10271600E0FBA3E0FAA3E0F98D828C83120970FF37
:1027260012008B90094AE004F070CC900949E0044D
:10273600F080C4900948E06401600302280A90040E
:1027460073F0A3F0A3F07FE87E03FDFC123BE49058
:102756000473E0B405028007900474E0B40107E452
:1027660090094BF0801A900475E0B4020890094B6A
:102776007401F0800B12441650D590094B7402F088
:1027860090094BE0702D900940E0FBA3E0FAA3E02E
:10279600F99000351209702477F582E43405F58343
:1027A600E4F01242E69007E2120BAC7BFF7A1A794C
:1027B600E6800F1242E69007E2120BAC7BFF7A1A14
:1027C60079F8120F66900940E0FBA3E0FAA3E0F95E
:1027D6009000351209702477F582E43405F583E01C
:1027E60004F0900035120970FF2477F582E4340571
:1027F600F583E0D39414400C74682FF582E4340416
:04280600F583E4F082
:01280A0022AB
:10408E007BFF7A1B790D123E15123B557BFF7A1B77
:10409E007919123E157FD07E07123B59BF01037F5F
:0540AE0001227F002249
:0D43650074682FF582E43404F583E0FF2234
:0643DA00900464E0FF22E4
:10389D0090097DEBF0A3EAF0A3E9F07BFF7A1B79A9
:1038AD0028123E1590097DE0FBA3E0FAA3E0F91282
:1038BD003E157BFF7A1A7951123E15900980E0FB77
:1038CD00A3E0FAA3E0F9123E157BFF7A1B793312C0
:1038DD003E15900983E02430FF12008B7BFF7A1A8E
:0538ED007955023E15B3
:09439A007BFF7A1B7939023E1504
:103EDF009007CBEFF07BFF7A1B7942123E159007CC
:103EEF00CBE02430FF12008B7BFF7A1A791C123E35
:103EFF00157F207E03123B59BF01037F01227F00F4
:013F0F00228F
:103B0D009007E274FFF0A3741AF0A37495F0A3EE7E
:103B1D00F0A3EFF07B017A09796C120F607BFF7ACD
:103B2D001B794D123E157B017A09796C123E157B7E
:103B3D00FF7A1A791C123E157F207E03123B59BF66
:073B4D0001037F01227F004C
:013B5400224E
:103F10009009C3EFF07BFF7A1B7956123E1590098A
:103F2000C3E02430FF12008B7BFF7A1A791C123E0B
:103F3000157F207E03123B59BF01037F01227F00C2
:013F4000225E
:1000960012434BEF4E70030209567800E29007892F
:1000A600F0123C717800EFF2900466E0FF640360A2
:1000B6001BE2FE0808E2FD2401F218E2FC3400F21D
:1000C60074762DF58274043CF583EEF07801E2FC3B
:1000D60008E2FDD394FFEC94004005E418020950B1
:1000E600EF7027ED64054C7021900476E0B42B1A6E
:1000F600A3E0B44915A3E0B45010A3E0B4440BA3A5
:10010600E0B42C069004667401F0900466E0FFB437
:1001160001107800E2642C60030200967402F0027B
:100126000096EFB402247800E2643A600302009677
:100136007B017A04797D1229FB90046DEEF0A3EF22
:10014600F09004667403F0020096900466E064037F
:10015600703B90046EE024FFF090046DE034FFF0F5
:10016600900465E078007007E2FF12373D8005E2F3
:10017600FF12000090046DE0FEA3E04E6003020053
:1001860096900466F07803F278010209509004769E
:10019600E0B43E0EA3E0B42009E47803F27801024D
:1001A60009507800E2640A6003020096900789E02D
:1001B600640D600302009608E2FE08E22474F582EC
:1001C60074043EF583E4F0900476E0FFB44111A395
:1001D600E0B4540CA3E0B42B07087401F2020279D0
:1001E600EFB42B0878037402F2020279900476E0E9
:1001F600B44F0CA3E0B44B0778037403F2807490F9
:100206000476E0FF6445701BA3E0B45216A3E0B485
:100216005211A3E0B44F0CA3E0B452077803740460
:10022600F28050EFB46218900477E0B47511A3E041
:10023600B4730CA3E0B4790778037405F2803490A4
:100246000476E064537027A3E064457021A3E0645C
:100256004E701BA3E0B44416A3E0B42011A3E0B48F
:100266004F0CA3E0B44B0778037406F280057803BD
:100276007407F29007927401F0A37404F0A37476E5
:10028600F07803E224FD70030204B714700302043D
:10029600BD1470030204C31470030204C91470036E
:1002A6000204D22405600302094A900792E0FBA3E8
:1002B600E0FAA3E0F99000011209706443705090CF
:1002C60000021209706449704690000312097064B6
:1002D60050703C900004120970645370329000050F
:1002E60012097064547028900006120970B4411FF8
:1002F600900007120970B45416900008120970B4E1
:10030600550D9000091209706453700302094A9052
:100316000792E0FBA3E0FAA3E0F99000011209704E
:10032600FF644370349000021209706457702A907B
:100336000003120970B44A21900004120970B441F6
:1003460018900005120970B4500F9000071209703A
:1003560024D190045DF002094AEF6443600302046D
:1003660072900002120970645760030204729000D2
:1003760003120970644C60030204729000041209AF
:1003860070644160030204729000051209706450A3
:10039600600302047290057CE06401600302094A6E
:1003A60090045EE0FEA3E0FF90045BE0FCA3E0C3E4
:1003B6009FFFEC9EFE7801E2FC08E224F6FDEC3499
:1003C600FFFCC3ED9FEC9E400302046A900792E097
:1003D600FBA3E0FAA3E02408F9E43AFA90078AEBD3
:1003E600F0A3EAF0A3E9F0900795E4F0A37402F015
:1003F60090078AE0FBA3E0FAA3E0F9120957642903
:10040600604090078AA3E475F0011209E7A9F0FAA3
:10041600120957FF90046FE0FBA3E0FAA3E0F990FE
:10042600045EE475F0011209E785F082F583EF12A8
:1004360009AF900796E004F070B6900795E004F0D7
:1004460080AE90046FE0FBA3E0FAA3E0F990045EAF
:10045600E475F0011209E785F082F583743B120911
:10046600AF02094AE490057CF002094A900792E03F
:10047600FBA3E0FAA3E0F990000112097064496059
:100486000302094A900002120970645060030209CF
:100496004A9000031209706444600302094A7D3AD7
:1004A60012412890078DEBF0A3EAF0A3E9F00209C8
:1004B6004A9004740208EB9004750209479004728E
:1004C6000208AD9004737405F002094A900792E0A1
:1004D600FBA3E0FAA3E0F9900001120970FF642C77
:1004E600704A900002120970644370409000031233
:1004F6000970644C7036900004120970644F702CB9
:10050600900005120970B45323900006120970B4C6
:10051600451A900007120970B4441112095724387D
:10052600F582E43404F583E4F002094A120957FE21
:10053600B44E1AEFB46F16900003120970B4410D51
:10054600900004120970B45004E40206FAEE6453F3
:1005560070789000011209706454706E9000021257
:100566000970644170649000031209706454705AF3
:1005760090000412097064557050900005120970BD
:1005860064537046900007120970FF64346008EFE8
:100596006435600302094AE4900795F0A3F09007DA
:1005A60096E02468F582E43404F583E4F090079637
:1005B600E004F07006900795E004F0900795E0FEE1
:1005C600A3E064054E70D702094A120957645760C2
:1005D60003020701900001120970644960030207D3
:1005E6000190000212097064466003020701900040
:1005F600031209706449600302070190000512099D
:100606007064437062900006120970644F705890CF
:100616000007120970644E704E900008120970644B
:100626004E7044900792E0FBA3E0FAA3E0F9900035
:10063600091209706445702F90000A12097064430C
:10064600702590000B120970B4541C90000C12090E
:1006560070B4451390000D120970B4440A90045DFD
:100666007401F0900464F0900792E0FBA3E0FAA313
:10067600E0F99000051209706444600302094A908B
:1006860000061209706449600302094A90000712C5
:1006960009706453600302094A90000812097064E5
:1006A60043600302094A900009120970644F60030F
:1006B60002094A90000A120970644E600302094A50
:1006C60090000B120970644E600302094A90000CF8
:1006D6001209706445600302094A90000D12097000
:1006E6006443600302094A90000E12097064546064
:1006F6000302094A900464F002094A900792E0FB5B
:10070600A3E0FAA3E0F9120957FF6452702E900095
:100716000112097064657024900002120970B463B6
:100726001B900003120970B476129000041209702F
:10073600B420099004737404F002094AEF646C70E3
:100746003F90000112097064697035900002120929
:1007560070646E702B900003120970646B702190A8
:100766000004120970B42018900005120970B469CB
:100776000F900006120970B4730690045A0208EB33
:100786001209576441705E900001120970644C7042
:10079600549000021209706452704A9000031209C4
:1007A6007064457040900004120970644170369080
:1007B60000051209706444702C900006120970B48A
:1007C6005923900007120970B4201A900792E0FB93
:1007D600A3E0FAA3E0F9900008120970B44306906A
:1007E600045A020947900792E0FBA3E0FAA3E0F956
:1007F600120957FF647360030208B39000011209DF
:1008060070646D60030208B390000212097064619F
:1008160060030208B3900003120970647260030259
:1008260008B3900004120970647460030208B39060
:10083600000C1209706463600302094A90000D12ED
:100846000970646F600302094A90000E1209706411
:100856006E600302094A90000F120970646E60030D
:1008660002094A9000101209706465600302094A81
:100876009000111209706463600302094A90001225
:100886001209706474600302094A90001312097019
:100896006465600302094A9000141209706464607A
:1008A6000302094A9004677403F002094AEF64736D
:1008B6007038900792E0FBA3E0FAA3E0F9900001FC
:1008C60012097064737023900002120970B4691AD9
:1008D600900003120970B46411900004120970B4F8
:1008E6003A089004677401F0805A900792E0FBA3DF
:1008F600E0FAA3E0F91209576470704890000112FB
:1009060009706461703E900002120970647370345D
:100916009000031209706473702A90000412097023
:10092600B47721900005120970B46F189000061272
:100936000970B4720F900007120970B4640690042F
:10094600677402F0E47803F27801F208F202009686
:01095600227E
:043B55007FE87E0384
:103B5900E4900474F0A3F0FCFD123BE4900474E0DB
:103B69006401600BA3E06402600512441650ED1273
:103B79004416500C7BFF7A1B7960120F667FE02296
:103B8900900474E0B401037F0122900475E0B4024B
:043B9900027F022283
:104041009009C4EFF0E4900473F0AE04AF05FCFDF9
:10405100123BE49009C4E0FF900473E0B50701222C
:0840610012441650EE7FE0222C
:0643E000900465EFF022DD
:0643E600900465E0FF22D7
:103D3800900576E070367BFF7A1B796F123E157B13
:103D4800FF7A1A791C123E157FD07E07123B59BFA5
:103D580001179005767401F0E4900467F07BFF7A10
:0F3D68001B7981120F667F00227F01227F0222CA
:10362400900576E070037F0122900467E0FEB40306
:10363400099004647401F07F0022EEB4011A12426E
:10364400E6EF2460FFEE34EAFEE43DFDE43CFC904A
:103654000460120BAC7F0322900467E0B4021D12D5
:1036640042E6900460E0F8A3E0F9A3E0FAA3E0FBEB
:0F367400C3120B8850037F04227F03227F0222A0
:103E48007BFF7A1B7994123E157BFF7A1A791C1234
:103E58003E157FD07E07123B59BF01147BFF7A1BAA
:103E680079A3120F66E4900576F0900467F0FF22BC
:033E78007F0122A5
:10244E00534B32202056657273696F6E203A2025E9
:10245E00730D0A0076312E312E39004D4355204929
:10246E0044203A2025730D0A004D41494E5F466FB8
:10247E0073632020203A20256C64487A0D0A00559B
:10248E00415254315F4241554420203A20256C641C
:10249E004270730D0A003232312E3132322E31310A
:1024AE00352E393900313030303100537563636564
:1024BE00737320636F6E6E65637420574946490DC2
:1024CE000A005375636365737320636F6E6E656385
:1024DE007420544350207365727665720D0A004C59
:1024EE0069737420617661696C61626C652041501C
:1024FE002061726F756E64203A200025730D0A00FC
:10250E005458203A2025642C20256C646D730D0AD6
:10251E000052656376475052532044617461203AED
:10252E0020000D0A005749464920446F776E6C6FA4
:10253E0061642066696E6973680D0A000D0A536B3B
:10254E006970205749464920446F776E6C6F6164FD
:10255E000D0A00576966695F574946495F41545FE6
:10256E004F4B0D0A005749464920436865636B205F
:10257E00202020202020202020706173730D0A005F
:10258E005749464920436865636B2009090966610E
:10259E00696C0D0A004368696E614E65742D6D5845
:1025AE006E450000000000733666717137346600A8
:0925BE0000000000000000000014
:101260009007A6120BB8000000009007AA120BB856
:10127000000000009007AE120BB800000000E490E0
:1012800007B2F0A3F0A3F0C2AFD201124144D201E1
:101290001240F01240B37F007E807D517C01123FEE
:1012A0004112342DD2AF7F0A7E007D007C00123BBC
:1012B0009D9007E274FFF0A37424F0A37462F07BA6
:1012C000FF7A24794E120F667B017A0779B6123ABB
:1012D000C59007E27401F0A37407F0A374B6F07B25
:1012E000FF7A247969120F667BFF7A247977900759
:1012F000E2120BB801518000120F667BFF7A24794D
:101300008D9007E2120BB80001C200120F667F0A2F
:101310007E007D007C00123B9D122AD690019774BE
:1013200001F078627C01FD7BFF7A2479A4120E5AC9
:1013300078727C017D017BFF7A2479B3120E5AE426
:10134000900196F0D201124405122DF11243DAEF0A
:1013500070239007CD74FFF0A37425F0A374B5F04B
:101360007BFF7A2579A3122FB7EF70097BFF7A24D0
:1013700079B9120F66900197E0FF124365EF64019F
:10138000601B1243DABF01157B017A0179621225D5
:10139000C7BF01097BFF7A2479D0120F661242F58C
:1013A0009007AAE0F8A3E0F9A3E0FAA3E0FBC312D8
:1013B0000B88501912408E1242F5EF243CFFE43E98
:1013C000FEE43DFDE43CFC9007AA120BAC1242F592
:1013D0009007A6E0F8A3E0F9A3E0FAA3E0FBC312AC
:1013E0000B8840030214AD900197E0FF124365EFB4
:1013F000640160030214AD7B017A0179987D2C7C35
:10140000011233BDEF70207BFF7A2479ED120F6655
:101410009007E27401F0A37401F0A37498F07BFFCD
:101420007A257909120F667B017A01799812423B7D
:101430009007D0EEF0A3EFF09007CD7401F0A37405
:1014400001F0A37498F07B017A01796212210EEF0A
:10145000640170599007B4E004F070069007B3E09F
:1014600004F01242F59007E4120BAC7BFF7A257969
:101470000E9007B3E0FFA3E09007E2CFF0A3EFF0F8
:10148000120F661242F5EF240AFFE43EFEE43DFD32
:10149000E43CFC9007A6120BAC7FE87E037D007C49
:1014A00000123B9D7B017A0179621235657B017ADE
:1014B0000079CC7D967C001231D29007A0EEF0A38B
:1014C000EFF04E700302134C7BFF7A25791F120F49
:1014D00066E490079EF0A3F09007A0E0FEA3E0FF73
:1014E000C390079FE09F90079EE09E5020A3E024BA
:1014F000CCF582E43400F583E0FF12399490079F25
:10150000E004F070D390079EE004F080CB7BFF7A7C
:09151000257930120F6602134C1C
:1040B300E4F5D0D2BC43B501C2B99007CE120BB818
:0F40C3000001C2007F007E807D517C01023349E5
:10342D009007CB740CF0E49007CAF07B017A077912
:10343D00CAFF121D909007CB7480F09007CA7403D9
:10344D00F07B017A0779CA7F02121D909007CB7429
:10345D0030F09007CA7403F07B017A0779CA7F04B4
:10346D00121D909007CB7440F09007CA7403F07B47
:10347D00017A0779CA7F02121D909007CB7410F064
:10348D009007CA7401F0FB7A0779CA7F03021D9079
:102AD600E49007CDF0A3F0C2011240F0D283C2C544
:102AE600C2A77FC87E007D007C00123B9DD2A77FD7
:102AF600E87E037D007C00123B9DD2011240F07FF0
:102B0600887E137D007C00123BE4A28292B1A2B0C3
:102B16009283A2B0E433FFA28292B1A2B0928390D4
:102B260007CCE06F6010A3E004F0E0D3940A4006FF
:102B3600A37401F08012A2B0E4339007CCF01244E3
:102B46001650C7E49007CEF09007CEE0B40111C24C
:102B5600011243ECC2AFA28292B1A2B0928380F678
:102B6600D2AFC2011240F07BFF7A25794A120F6676
:102B7600C2B4D283D282D2C5C2A7E49007CDF07F79
:102B860064FEFDFC123B9DD2011240F0D2011244BC
:102B9600057F647E007D007C00123B9DD2A7C2AFFC
:0A2BA600A28292B1A2B0928380F6E1
:0300000002304586
:0C304500787FE4F6D8FD75812302308C02
:10095700BB010689828A83E0225002E722BBFE029E
:09096700E32289828A83E49322D1
:10097000BB010CE58229F582E5833AF583E022503C
:1009800006E92582F8E622BBFE06E92582F8E22286
:0D099000E58229F582E5833AF583E49322A0
:10099D00BB010689828A83F0225002F722BBFE0139
:0209AD00F32233
:1009AF00F8BB010DE58229F582E5833AF583E8F07E
:1009BF00225006E92582C8F622BBFE05E92582C82A
:0209CF00F22212
:1009D100C5F0F8A3E028F0C5F0F8E58215827002B1
:0609E1001583E038F0224E
:1009E700A3F8E0C5F025F0F0E582158270021583C3
:0609F700E0C838F0E82220
:1009FD00BB010A89828A83E0F5F0A3E022500687C5
:100A0D00F009E71922BBFE07E3F5F009E319228986
:0B0A1D00828A83E493F5F074019322B9
:100A2800BB010A89828A83F0E5F0A3F0225006F719
:0F0A380009A7F01922BBFE06F3E5F009F3192216
:100A4700E88FF0A4CC8BF0A42CFCE98EF0A42CFC4E
:100A57008AF0EDA42CFCEA8EF0A4CDA8F08BF0A4CC
:100A67002DCC3825F0FDE98FF0A42CCD35F0FCEB2B
:100A77008EF0A4FEA9F0EB8FF0A4CFC5F02ECD39F0
:0F0A8700FEE43CFCEAA42DCE35F0FDE43CFC225D
:100A960075F008758200EF2FFFEE33FECD33CDCC17
:100AA60033CCC58233C5829BED9AEC99E58298409A
:100AB6000CF582EE9BFEED9AFDEC99FC0FD5F0D677
:100AC600E4CEFBE4CDFAE4CCF9A88222B800C1B9A1
:100AD6000059BA002DEC8BF084CFCECDFCE5F0CBDF
:100AE600F97818EF2FFFEE33FEED33FDEC33FCEB18
:100AF60033FB10D703994004EB99FB0FD8E5E4F9D3
:100B0600FA227818EF2FFFEE33FEED33FDEC33FCBF
:100B1600C933C910D7059BE99A4007EC9BFCE99AB3
:100B2600F90FD8E0E4C9FAE4CCFB2275F010EF2FF8
:100B3600FFEE33FEED33FDCC33CCC833C810D707F8
:100B46009BEC9AE899400AED9BFDEC9AFCE899F833
:0E0B56000FD5F0DAE4CDFBE4CCFAE4C8F922C6
:0E0B6400C3E49FFFE49EFEE49DFDE49CFC22A2
:100B7200EB9FF5F0EA9E42F0E99D42F0EC6480C8FA
:060B820064809845F0229A
:100B8800EB9FF5F0EA9E42F0E99D42F0E89C45F0C3
:010B9800223A
:100B9900E8600FECC313FCED13FDEE13FEEF13FF3A
:030BA900D8F1225E
:0C0BAC00ECF0A3EDF0A3EEF0A3EFF022BC
:100BB800A8828583F0D083D082120BCF120BCF127C
:100BC8000BCF120BCFE473E493A3C583C5F0C583A1
:100BD800C8C582C8F0A3C583C5F0C583C8C582C887
:010BE80022EA
:100EFB00E50824E2F582E43407F583E00508229047
:100F0B0007DF3008039007E2E475F001120EB5021B
:100F1B0009572001E97F2ED2018018EF540F24903E
:100F2B00D43440D4FF30050BEF24BFB41A00500368
:100F3B002461FFE50960021509050CE50C7002053B
:100F4B000B30080E9007DFE475F001120EB5EF02BF
:100F5B00099D0239947403D2088003E4C208F50892
:100F6B009007DF120ECCE4F509F50BF50CE50960E3
:100F7B00077F20120F3E80F5750AFFC202C201C225
:100F8B0003C204C206C207C209120F0AFF700D305A
:100F9B0008057F00120F4FAF0CAE0B22B4255FC2BA
:100FAB00D5C205120F0AFF24D0B40A00501A75F0EF
:100FBB000A780930D50508B6FF0106C6A426F62027
:100FCB00D5047002D20480D924CFB41A00EF500498
:100FDB00C2E5D205021150D20280C6D20180C0D226
:100FEB000380BCD2D580BAD20680B47F20120F3ECC
:100FFB002003077401B5090040F1120EFBFF120F1D
:10100B003E020F78D209D2078095120EFBFB120E0F
:10101B00FBFA120EFBF94A4B700679217A127BFF11
:10102B0020032EE509602A7E008E8275830012094B
:10103B007060060EEE650A70F0C2D5EBC0E0EAC038
:10104B00E0E9C0E0EE121197D0E0F9D0E0FAD0E081
:10105B00FB120957FF60AAEBC0E0EAC0E0E9C0E071
:10106B00120F3ED0E02401F9D0E03400FAD0E0FBBF
:10107B00E50A0460DCD50AD980877BFF7A11799366
:10108B00D203809C791080027908C207C2098008BC
:10109B00D2D5790A8004790AC2D5E50A047002F523
:1010AB000AE4FAFDFEFF120EFBFC7B082002131272
:1010BB000EFBFD7B1030010A120EFBFE120EFBFF26
:1010CB007B20EC3382D592D55013C3E43001069FBD
:1010DB00FFE49EFEE42002039DFDE49CFCE4CBF8C0
:1010EB00C202EC700CCFCECDCCE824F8F870F380B4
:1010FB0017C3EF33FFEE33FEED33FDEC33FCEB3375
:10110B00FB994002FB0FD8E9EB300205F8D0E0C4A5
:10111B0048B202C0E00AEC4D4E4F78207B0070C203
:10112B00EAB50A0040BCC0E0121199D0F0D0E02023
:10113B000204C4C0E0C4B202C0F0120F27D0F0D535
:10114B00F0EB020F78120ED5101553108F580FE6D7
:10115B004C0FE24210934F109B44109B490FFB43E3
:08116B0010A155108546108506
:10117300451085471241500FEA2D0FEE2E10112B0B
:101183000FF223100F20122A2A0FAA480000100979
:101193003F3F3F00790AA2D5200414300609B91055
:1011A300020404B9080104A2D52007025001042057
:1011B30003689203B509005034C0E07F203004195E
:1011C3007F30A20372077206500F1211F0C203C2DE
:1011D30007C206C2097F30800F300603E9C0E01260
:1011E3000F3E300603D0E0F9D0E0B509CC30061746
:1011F3007F30B9100C120F3E7F583005077F78807F
:1012030003B90803120F3E3003057F2D020F3E7F03
:10121300202009F87F2B2007F322920380CF286E2A
:10122300756C6C2900D202120EFB3002F8C20278F0
:101233000930D50108F6020FAA2D50434958120E62
:10124300FB2403B405004001E490123C93120F2FDA
:0D125300743A120F2FD20475090402108F97
:100BE900E3F5F009E208B5F06D606B80F3E3F5F029
:100BF90009E608B5F060605E80F387F009E608B59C
:100C0900F054605280F487F009E208B5F048604674
:100C190080F488828C8387F009E0A3B5F0386036C8
:100C290080F488828C8387F009E493A3B5F0276068
:100C39002580F388828C83E3F5F009E0A3B5F016EB
:100C4900601480F388828C83E3F5F009E493A3B5FB
:100C5900F004600280F2020D14808580E7808E80A6
:100C6900D2803C8015806C807E809B80B5808B8093
:100C7900A1804F8070803A020D2A89828A83ECFA1A
:100C8900E493F5F0A3C8C582C8CCC583CCE493A38B
:100C9900C8C582C8CCC583CCB5F070606E80E189C7
:100CA900828A83E493F5F0A3E208B5F05E605C8084
:100CB900F289828A83E0F5F0A3E608B5F04D604B2E
:100CC90080F389828A83E0F5F0A3E208B5F03C60FD
:100CD9003A80F389828A83E493F5F0A3E608B5F0B4
:100CE9002A602880F2805D89828A83ECFAE493F590
:100CF900F0A3C8C582C8CCC583CCE0A3C8C582C847
:100D0900CCC583CCB5F004600280E27F00F845F0E1
:100D1900600EE863F0806480D395F01F40027F0184
:100D29002289828A83ECFAE0F5F0A3C8C582C8CC8F
:100D3900C583CCE0A3C8C582C8CCC583CCB5F0CBEC
:100D490060C980E389828A83ECFAE0F5F0A3C8C51B
:100D590082C8CCC583CCE493A3C8C582C8CCC5835B
:100D6900CCB5F0A760A580E288F0ED2402B40400B8
:100D79005099F582EB2402B40400508F2323458255
:050D890023900C6273D1
:100D8E00E709F60870FA8046E709F20870FA803E25
:100D9E0088828C83E709F0A370FA807EE309F60857
:100DAE0070FA8076E309F20870FA806E88828C837E
:100DBE00E309F0A370FA806289828A83E0A3F608C1
:100DCE0070FA805689828A83E0A3F20870FA804A0C
:100DDE0080D280FA80C680D4806580F28031801007
:100DEE0080A680EA809A80A880DA80E280CA80316C
:100DFE0089828A83ECFAE493A3C8C582C8CCC583E2
:100E0E00CCF0A3C8C582C8CCC583CC70E9800D894F
:100E1E00828A83E493A3F60870F9ECFAA9F0EDFB4D
:100E2E002289828A83ECFAE0A3C8C582C8CCC58326
:100E3E00CCF0A3C8C582C8CCC583CC70EA80DD894E
:100E4E00828A83E493A3F20870F980CE88F0ED24B1
:100E5E0002B4040050C4F582EB2402B4040050BA6C
:090E6E002323458223900DDE735D
:10423B00E4FFFE120957600C0FEF70010E09E970D5
:05424B00F20A80EF22E1
:10412800E94A4B700122120957FF6D700122EF70A6
:0C41380004FBFAF92209E970ED0A80EAA4
:10280B00900984EBF0A3EAF0A3E9F0900984E0FBD4
:10281B00A3E0FAA3E0F9120957FF124250500C90B3
:10282B000985E475F0011209D180E0D21A90098470
:10283B00E0FBA3E0FAA3E0F9120957FF642B600455
:10284B00EFB42D1D900984E0FBA3E475F001120990
:10285B00E7A9F0FA120957642D6003D38001C392E4
:10286B001A900987120BB800000000900984E0FB56
:10287B00A3E0FAA3E0F9120957FF1243225068E4D0
:10288B007F0AFEFDFC900987E0F8A3E0F9A3E0FACC
:10289B00A3E0FB120A47C8ECC8EDC0E0EEC0E0EFC6
:1028AB00C0E0900984E0FBA3E0FAA3E0F91209571A
:1028BB00FF3395E0FEEF24D0FFEE34FFFEE4FCFD8A
:1028CB00D0E0FBD0E0FAD0E0F9EB2FFFEA3EFEEDD3
:1028DB0039FDEC38FC900987120BAC900985E47537
:1028EB00F0011209D18084301A10900987E0FCA303
:1028FB00E0FDA3E0FEA3E0FF8011900987E0FCA3BD
:0C290B00E0FDA3E0FEA3E0FF120B64223D
:1029FB00900797EBF0A3EAF0A3E9F0900797E0FBC1
:102A0B00A3E0FAA3E0F9120957FF124250500C90C1
:102A1B000798E475F0011209D180E0D20090079776
:102A2B00E0FBA3E0FAA3E0F9120957FF642B600463
:102A3B00EFB42D1D900797E0FBA3E475F00112098D
:102A4B00E7A9F0FA120957642D6003D38001C392F2
:102A5B0000E490079AF0A3F0900797E0FBA3E0FA4D
:102A6B00A3E0F9120957FF1243225042900797E057
:102A7B00FBA3E0FAA3E0F9120957FF3395E0FEEF51
:102A8B0024D0FBEE34FFFA90079AE0FEA3E0FF7C24
:102A9B00007D0A120EA3EF2BFFEE3A90079AF0A3DC
:102AAB00EFF0900798E475F0011209D180AA30007D
:102ABB000A90079AE0FEA3E0FF800F90079AE0FED2
:0B2ACB00A3E0FFC3E49FFFE49EFE2297
:100E7700EF4E6012EF60010EEDBB010B89828A8392
:100E8700F0A3DFFCDEFA2289F05007F709DFFCA99F
:0C0E9700F022BBFEFCF309DFFCA9F022F6
:10305100021260E493A3F8E493A34003F68001F223
:1030610008DFF48029E493A3F85407240CC8C33380
:10307100C4540F4420C8834004F456800146F6DF4F
:10308100E4800B01020408102040809032CFE47EDE
:10309100019360BCA3FF543F30E509541FFEE49344
:1030A100A360010ECF54C025E060A840B8E493A30B
:1030B100FAE493A3F8E493A3C8C582C8CAC583CA36
:1030C100F0A3C8C582C8CAC583CADFE9DEE780BEEE
:013348000084
:100EA300EF8DF0A4A8F0CF8CF0A428CE8DF0A42E63
:020EB300FE221D
:100EB500F8E0FBA3A3E0F925F0F0E58215827002C6
:070EC5001583E0FA38F0226A
:090ECC00EBF0A3EAF0A3E9F02227
:100ED500D083D082F8E4937012740193700DA3A3AC
:100EE50093F8740193F5828883E4737402936860C0
:060EF500EFA3A3A380DFC0
:0F432200EFC394304007EF943A50028001C3225A
:10425000EFC394094005EF940E4004EFB42003D35C
:044260008001C322F4
:00000001FF
